00:50:18.902563 eth0  In  IP 172.18.0.3.33630 > 172.18.0.2.39519: Flags [P.], seq 1:409, ack 1, win 63, options [nop,nop,TS val 3131614733 ecr 1339975612], length 408
	0x0000:  4500 01cc c862 4000 4006 18a0 ac12 0003  E....b@.@.......
	0x0010:  ac12 0002 835e 9a5f ca03 fcfe 8c2c 7c2e  .....^._.....,|.
	0x0020:  8018 003f 59e8 0000 0101 080a baa8 a60d  ...?Y...........
	0x0030:  4fde 67bc 1603 0301 9301 0001 8f03 0396  O.g.............
	0x0040:  ccb4 12cc 91b1 533c 5611 5fff c133 d9d0  ......S<V._..3..
	0x0050:  e0e5 db39 4387 3a18 9acd e9d8 d27f fe20  ...9C.:.........
